:1000000009C016C015C014C013C012C011C010C062
:100010000FC00EC011241FBECFE9CDBF20E0A0E667
:10002000B0E001C01D92AB36B207E1F7ECD0BEC123
:10003000E7CF90E0981305C008952150F1F79F5F36
:10004000F9CF20E0FACFF894A89584B7877F84BFD2
:1000500081B5886181BD11BC78940895E199FECF86
:100060001CBA8EBB6DBBE29AE19A0895E199FECF6E
:100070008EBBE09A8DB30895CF92DF92EF92FF92FC
:10008000CF93C82F6A017B01642FE8DF99278F2D5A
:100090007E2D6D2D81E08C0FE1DFB7018827992738
:1000A00082E08C0FDBDF6F2D77278827992783E08D
:1000B0008C0FCF91FF90EF90DF90CF90CFCF8F92AA
:1000C0009F92AF92BF92CF92DF92EF92FF92CF9327
:1000D000DF93C82FCBDF882E912CB12CA12C81E08F
:1000E0008C0FC4DFD82F82E08C0FC0DF90E0B0E02F
:1000F000A0E07C01DD24CC24DD2AC828D928EA2808
:10010000FB2883E08C0FB2DFA7019601582BCA01B0
:10011000B901DF91CF91FF90EF90DF90CF90BF902A
:10012000AF909F908F90089530E020E060E870E0FD
:1001300090E0C298AB01022E02C0559547950A94F3
:10014000E2F748235923452B41F0C09AC29A2F5F0A
:100150003F4F2830310569F70895C098F7CF1F93B6
:10016000CF93DF93EB01182FC19A8FEFDDDF812F43
:10017000DBDF8D2FD9DF8C2FD7DFC198C19AC198D3
:10018000DF91CF911F910895CF92DF92EF92FF926E
:100190000F931F93CF93DF936B017C01D42F122F0A
:1001A000C0E0C01309C0DF91CF911F910F91FF9064
:1001B000EF90DF90CF900895C701B601D0DF8D2F6B
:1001C00038DF60E070E0CB01CADF812F32DFCF5F24
:1001D000E8CF2DE036E649E150E06091670070918C
:1001E00068008091690090916A00C7D0615A7C4094
:1001F0008149934C60936700709368008093690015
:1002000090936A0008951FDF87E087BB8AE188BB6F
:1002100060E070E0CB01A3DF8FEF0BDF80E084DFD5
:1002200080E082DF80E080DF80E07EDF8FEF7CDFB8
:1002300080E07ADF80E078DF80E076DF8FEF74DFC8
:100240008FEF72DF8FEF70DF8FEF6EDF01E024E65C
:1002500044E66FEF73E080E090E096DF24E644E64A
:1002600060E07CEF8FEF90E08FDFCAE0B2DF77DFF6
:1002700084E6DFDEC150D1F780E0F8DE80936100D4
:1002800090E0B0E0A0E08093670090936800A093B6
:100290006900B0936A0083E012DF6093620070939C
:1002A0006300809364009093650010926000C12CFD
:1002B000D12C7601C39460916200709163008091AB
:1002C0006400909165004BDFB39924C08091660073
:1002D0008331E0F0109266006091620070916300DB
:1002E00080916400909165003ADF409162005091E6
:1002F0006300609164007091650083E0BDDE8AE078
:1003000098DEB39BFECF84E694DED5CF8F5F8093DB
:100310006600E2CFB499F7CF80916600A7019601FD
:1003200004C0220F331F441F551F8A95D2F7CA01FC
:10033000B901009162001091630020916400309136
:10034000650060277127822793276093620070936E
:100350006300809364009093650001DF4091620028
:1003600050916300609164007091650083E084DEC9
:100370008AE05FDEB49BFECFC6CFEE27FF27AA2719
:10038000BB2708C0A20FB31FE41FF51F220F331FA6
:10039000441F551F969587957795679598F37040FC
:1003A000A9F7009799F7BD01CF010895F894FFCF01
:00000001FF
